:0300000002091FD3
:0C091F00787FE4F6D8FD7581D8020966E7
:0413F70075C13F225B
:1013800075C70075C50075C60075C38075C4002299
:0411EA008E598F5A31
:1011EE0075C78275C501855AC4E559FF7E008FC348
:0F11FE0075C65A75C6A50085C25B121380AF5B1C
:01120D0022BE
:101253008E5C8F5D8D5E75C78275C502855DC4E545
:101263005CFF7E008FC3855EC275C65A75C6A52214
:101293008E658F6675C78275C5038566C4E565FF70
:0F12A3007E008FC375C65A75C6A5001213802230
:100185007F007E161212937881E6FD7F007E16129F
:1001950012537882E6FD7F107E16121253AD1D7F35
:1001A500207E161212537D017F307E161212537572
:1001B5007100E571C39402501BAF717E00EF2440BE
:1001C500FFEE3416FEAD7174242DF8E6FD121253C0
:1001D500057180DEE571C39404501BAF717E00EF9D
:1001E5002440FFEE3416FEAD7174852DF8E6FD1240
:1001F5001253057180DEE571C39406501BAF717E05
:1002050000EF2440FFEE3416FEAD7174892DF8E63B
:10021500FD121253057180DE757100E571C39404FA
:10022500501BAF717E00EF2400FFEE3417FEAD7159
:1002350074202DF8E6FD121253057180DEE571C3B9
:100245009408501BAF717E00EF2400FFEE3417FEBB
:10025500AD7174072DF8E6FD121253057180DEE5C8
:1002650071C3940C501BAF717E00EF2400FFEE3478
:1002750017FEAD71747B2DF8E6FD121253057180E2
:10028500DEE571C39410501BAF717E00EF2400FFB3
:10029500EE3417FEAD7174832DF8E6FD1212530589
:1002A5007180DEE571C39414501BAF717E00EF249D
:1002B50000FFEE3417FEAD7174792DF8E6FD1212CC
:1002C50053057180DEE571C39418501BAF717E0034
:1002D500EF2400FFEE3417FEAD7174812DF8E6FDB5
:0802E500121253057180DE22A4
:10000E007F207E161211EA8F1DE51DC39407400452
:10001E00751D04227F307E161211EA8F1F7F007E1F
:10002E00161211EA7881A6077881E6FFEF70047840
:10003E008176057F107E161211EA7882A6077571F9
:10004E0000E571C39402501BAF717E00EF2440FF98
:10005E00EE3416FE1211EAAE7174242EF8A60705C0
:10006E007180DEE571C39404501BAF717E00EF24E6
:10007E0040FFEE3416FE1211EAAE7174852EF8A60C
:10008E0007057180DEE571C39406501BAF717E00CB
:10009E00EF2440FFEE3416FE1211EAAE7174892E73
:1000AE00F8A607057180DE757100E571C3940450E2
:1000BE001BAF717E00EF2400FFEE3417FE1211EA23
:1000CE00AE7174202EF8A607057180DEE571C3941B
:1000DE0008501BAF717E00EF2400FFEE3417FE12A6
:1000EE0011EAAE7174072EF8A607057180DEE57170
:1000FE00C3940C501BAF717E00EF2400FFEE34173B
:10010E00FE1211EAAE71747B2EF8A607057180DE21
:10011E00E571C39410501BAF717E00EF2400FFEE0B
:10012E003417FE1211EAAE7174832EF8A60705710C
:10013E0080DEE571C39414501BAF717E00EF240076
:10014E00FFEE3417FE1211EAAE7174792EF8A6077F
:10015E00057180DEE571C39418501BAF717E00EF00
:10016E002400FFEE3417FE1211EAAE7174812EF8E0
:07017E00A607057180DE22D7
:0E074100063F030A060A0A0A014600014500A7
:100D470012131EE5261205980D7B010D73020D6B1C
:100D5700040D5F0800000D83E546702312134875E4
:100D67004601801B120A2D754600801312120E755C
:100D77004600800B1205BE7546008003754600309D
:100D8700B20375450020B20AE545700675450112A4
:030D9700134822DC
:101348000509E50975F0038485F0097F5E7E0112C1
:031358001104225B
:100A2D00E51AB40803120185E51A700C7881E6FF0A
:100A3D008F167882E6FF8F17E51AB401087881A624
:100A4D00167882A617E51AB4020685240F8525109F
:100A5D00E51AB404107887E6FF7893A6077888E640
:100A6D00FF7894A607E51AB40610788DE6FF7899FD
:100A7D00A607788EE6FF789AA607051AE51A75F08F
:100A8D00098485F01A750A00E51A64086004E51AF0
:0A0A9D0070077FC87E0012110422CA
:10120E00050AE51A6401600AE51A30E005530A037F
:10121E008009E50A75F0068485F00A7F327E001299
:03122E0011042286
:1005BE00E51A700302068AE51AB4080C051DE51D3E
:1005CE0075F0068485F01D22120AA7AF0A7E00EF91
:1005DE00253DF53DEE353CF53CAB3BAA3CA93D74C3
:1005EE00011204FDAB3BAA3CA93D1204E4FFAE0A86
:1005FE00743F2EF8E6FEEFC39E400AAB3BAA3CA921
:10060E003DE412051FE50AB4014474FF253DF53D96
:10061E0074FF353CF53CAB3BAA3CA93D1204E4FF0C
:10062E00EFB4021F7401253DF53DE4353CF53CABBE
:10063E003BAA3CA93D1204E4FFEF5403FFEF120561
:10064E001F800B7401253DF53DE4353CF53CE51A64
:10065E00B40129789B7600E514C454F0FFEF2515FC
:10066E00FF789CA607E512C454F0FFEF2513FF7820
:0D067E009DA6077B007A00799B120E892251
:041104008E518F5227
:10110800E5521552AE5170021551FFEF4E601B7536
:1011180053037554D4E55415547002155314FFAE97
:0A11280053EF4E70F01213F780D65B
:01113200229A
:0212B2008F6744
:1012B4001567AF67C3EF64809480400E756814159A
:0A12C40068AF68EF60EA80F780E68B
:0112CE0022FD
:101305007593007594007591007592047595007537
:09131500966E75B10075B200225C
:0A13DF0012130543C58012135B22B0
:0C13C7008F72E5727003D2B522D2A4220E
:0C13D3008F73E5737003C2B522C2A42220
:100C9B008F7478C276010876F4AF741213C77F0194
:100CAB001212B2AF741213D37F141212B2AF7412AA
:100CBB0013C77F021212B278C208E61618860670A6
:100CCB000116FFEF4E6011E574700330B50AE57441
:100CDB00600330A4030080DFAF741213D37F0A12BA
:080CEB0012B2AF741213C7220C
:040FAB008F698D6A53
:100FAF0078D2760078D2760878D2E6FFEFD3940025
:100FBF004029E56A7009C2B5E5691392B58007C289
:100FCF00A4E5691392A47F021212B2AF6A1213C77B
:0B0FDF00E569C313F56978D21680CDD8
:010FEA0022E4
:020CF3008F75FB
:100CF50078C1760078C0760878C0E6FFEFD3940017
:100D0500403BAF751213D378C1E6FFEFC313FF78ED
:100D1500C1A607AF751213C7E575700320B508E5C1
:100D250075B4010F30A40C78C1E6FFEF4480FF785D
:100D3500C1A6077F021212B278C01680BB78C1E641
:010D4500FFAE
:010D4600228A
:020409008F76EC
:10040B00AF76120C9BAD767FCC120FABAD767F44E3
:10041B00120FABE51CB4010A7FE87E0312110475C1
:10042B001C00AF76120C9BAD767FCC120FABAD766A
:10043B007FBE120FABAF76120CF378BBA607AF766D
:10044B00120CF378BCA60778BCE6FF7E00EF7F00AA
:10045B00FE78BBE6FD7C00EF2DFFEE3CFE78B9A6E7
:10046B000608A60778B9E6FE08E6FFEEC4F854F0D6
:10047B00C868FEEFC4540F48FF78B9A60608A60754
:10048B00800778B9760008760078B9E6FE08E6FFB3
:10049B00D3EF9463EE9400501FE576700B78B9E6BA
:1004AB00F55508E6F5568029E576B4012478B9E6CA
:1004BB00F55708E6F5588019E576700978B9A65511
:1004CB0008A656800CE576B4010778B9A65708A69E
:0804DB005878B9E6FE08E6FFBF
:0104E30022F6
:10074F000A313F065B4F666D7D077F6F0A27BF86B5
:08075F00DBCFE6EDFD87FFDFB3
:100B8100D297D2A0C2961213F2C2971213F27F80AB
:100B91001210D0D2971213F2C2971213F27F4012A1
:100BA10010D0D2971213F2C2971213F27FC0121013
:100BB100D01213F278D3760078D3E6FFEFC3941006
:100BC100500D7F001210D01213F278D30680E9D2B3
:100BD100971213F2C2971213F27F8A1210D0D29792
:030BE1001213F2FA
:010BE40022EE
:101063008F6B8D6CC29700007F441210D0D2970013
:1010730000C2970000E56B25E0FFEF24BFFF1210CD
:10108300D0AF6C1210D0D2970000C29700007F8FB0
:081093001210D0D297000022D8
:0210D0008F7718
:1010D20078D4760078D4E6FFEFC394085023C2A0F8
:1010E20078D4E6FFE577A807088002C313D8FCFF8F
:1010F200EF1392961213F2D2A01213F278D4068052
:01110200D319
:0111030022C9
:100FEB0078C57600D29678C4760078C4E6FFEFC356
:100FFB0094085024C2A078C5E6FFEFC313FF78C551
:10100B00A60730960678C5748026F61213F2D2A086
:0E101B001213F278C40680D278C5E6FF8F2645
:0110290022A4
:10131E00C29700007F421210D01213F2120FEB0090
:06132E00000000D297222E
:0513F2000000000022D4
:10136E008F6D8D6EAF6E74312FF8E6FDAF6D12106E
:02137E006322E8
:100ED500753E02E53ED39407503EE511601CE53EA4
:100EE500B40617AB3BAA3CA93D1204E4FF74272FB7
:100EF500F8E6FD7F06121063800FAB3BAA3CA93DC7
:100F05001204E4FDAF3E12136E7401253DF53DE478
:090F1500353CF53C053E80BB2291
:101133008F787D007F011210637B007A0079128B18
:101143003B8A3C893D120ED57F077E00121104E5D0
:0F11530078700BE50870077D007F08121063228B
:100AA7007B007A0079128B3B8A3C893DE51A120557
:100AB700980ACE020ADB030AE8040AF5050B0206C8
:100AC7000B0F0700000B1B7B007A0079208B3B8AFA
:100AD7003C893D227B007A00790B8B3B8A3C893D20
:100AE700227B007A0079838B3B8A3C893D227B00FD
:100AF7007A00798F8B3B8A3C893D227B007A00798B
:100B0700898B3B8A3C893D227B007A0079958B3B18
:050B17008A3C893D222B
:100B1C00E50A2402FF78C6A60778C77600E51A60B6
:100B2C000DAF1D74A52FF8E6FD7F08121063E51AB2
:100B3C00B408087F647E0012110422120AA7AF0ABF
:100B4C007E00EF253DF53DEE353CF53C78C6E6FFE5
:100B5C00AB3BAA3CA93D1204E4FD12136E7F647EEC
:100B6C000012110478C6E6FF7D001210637F647ECC
:040B7C00001211044E
:010B80002252
:1012EB00AD1A7F0112136E7B007A0079128B3B8A49
:0A12FB003C893D120AA7120ED5220D
:10076700011C010218000001810501820001090036
:10077700011A00010A00011D04011100011B0001FB
:100787000800061200000000050006200000000017
:1007970005000683000000000500068F000000002A
:1007A7000000068900000000050006950000000013
:1007B700000006A5086810701878011E0001A43211
:1007C700079B00001801010712011F0002A2006425
:0407D700027F03E8B2
:10109B0078A208E616188606700116FFEF4E700A46
:1010AB0012088B78A27600087664787F08E616180B
:1010BB008606700116FFEF4E700A120B81787F7651
:0510CB00030876E82295
:1007E6007F647E001211041213DF120B8112127342
:1007F600C2A512000EE51F6401600C7B007A007929
:100806009B120E89751F017F647E00121104C2922D
:100816001213F712068BE5097013120D47751A00AD
:100826007F0012113312109B1212CF80E1E509B43A
:1008360002101201851213E9C292751EFF75090096
:1008460080CC120D471212CF12109BE51A12059892
:1008560008780008800108800208800308800408E0
:1008660080050880060880070880080880090000BF
:1008760008141212EB120C428094120B1C1212EB8B
:05088600808C808A2235
:0607DB00014E0001500078
:0913E900121273C2A5751B00224B
:0D13BA00E54EB401077FC87E001211042229
:10127300E511B40103754E01C2A31213BAC2A2123F
:1012830013BAC2A11213BAC2A6751100754E002279
:100E3D00E51DC313FFEF1205980E53000E65010E4D
:100E4D00770200000E88D2A31213BAD2A21213BADF
:100E5D00C2A11213BAC2A622D2A31213BAD2A212DF
:100E6D0013BAD2A11213BAC2A622D2A31213BAD2A6
:0C0E7D00A21213BAD2A11213BAD2A622FC
:100D9A00D3E519954DE518954C400A121273751E44
:100DAA00FF751B0122E54D24F9FFE54C34FFFEC314
:100DBA00E5199FE5189E400AE51B6006121273C2E8
:100DCA00A522751B00E5117003754E0120A50CD2F2
:100DDA00A57F887E13121104120E3D751101754EFE
:020DEA000022E5
:07000300750801120D9A229D
:101231008F79E50970097D007F08121063800AE546
:10124100792420FD7F08121063121273C2A575085C
:02125100002279
:1009AB008B5F8A608961AB5F0561E561AA6070024C
:1009BB00056014F91204E4FF7E0AEF8EF0A4FFAE7B
:1009CB00F0AB5F0561E561AA607002056014F91276
:1009DB0004E4FD7C00EF2DFFEE3CFE7C007D3C1221
:1009EB000531AC06AD07AB5F0561E561AA6070022E
:1009FB00056014F91204E4FF7E0AEF8EF0A4FFAE3B
:100A0B00F0ED2FFFEC3EFEAB5F0561E561AA607078
:100A1B0002056014F91204E4FD7C00EF2DFFEE3C9F
:020A2B00FE22A9
:100BE5008E478F488C498D4A8B4BC3E54A9548E51E
:100BF500499547402478B3E6FE08E6FFC3EF9548DC
:100C0500EE9547403778B3E6FE08E6FFC3EF954A11
:100C1500EE95495027854B502278B3E6FE08E6FF4E
:100C2500D3EF954AEE9549401078B3E6FE08E6FF06
:0D0C3500C3EF9548EE95474003854B5022D4
:1002ED008F7A7550007B007A0079201209AB78B7B0
:1002FD00A60608A6077B007A00790B1209AB78B524
:10030D00A60608A6077B007A0079831209AB78AFA1
:10031D00A60608A6077B007A00798F1209AB78AB89
:10032D00A60608A6077B007A0079891209AB78B179
:10033D00A60608A6077B007A0079951209AB78AD61
:10034D00A60608A6077B007A0079121209AB78B3CE
:10035D00A60608A60778B1E6FE08E6FF78ADE6FC2E
:10036D0008E6FD7B01120BE578AFE6FE08E6FF78A7
:10037D00ABE6FC08E6FD7B02120BE578B7E6FE085E
:10038D00E6FF78B5E6FC08E6FD7B03120BE5AF242E
:10039D007E0AEF8EF0A4FFAEF0AD257C00EF2DF5BB
:1003AD004DEE3CF54CE550B4011D788DE6FF7E0A0F
:1003BD00EF8EF0A4FFAEF0788EE6FD7C00EF2DF50C
:1003CD004DEE3CF54C8020E550B4021B7887E6FFDE
:1003DD007E0AEF8EF0A4FFAEF07888E6FD7C00EF8C
:1003ED002DF54DEE3CF54CE550600BAD7A7F0812C6
:0C03FD00106312000322AF7A12123122AA
:100C42007881E6FF7E0AEF8EF0A4FFAEF07882E6AE
:100C5200FD7C00EF2DF54DEE3CF54CE51D1205989F
:100C62000C8A000C78010C8A020C7E030C8A040C9C
:100C7200840500000C9A7F281202ED227F301202B6
:100C8200ED227F381202ED22AF1D74A52FF8E6FD8A
:090C92007F08121063120D9A2272
:1013340012068BE50970067F0112113322751A001B
:041344001212EB2274
:0E139000121273C2A5D2921213F71213342256
:10088B007F0112102AD3EF940FEE9400400C7D01E0
:10089B007F0812106312139080E67F01120409D3B4
:1008AB00EF9455EE9400400C7D807F08121063127C
:1008BB00139080E6C3E5199403E5189400502E12AB
:1008CB001273C3E5199408E51894005019751101BA
:1008DB00D2A5120E3DD2921213F77D047F0812108F
:1008EB006312133480DCC292C2A51212737F001202
:1008FB00102AC3EF9408EE9400400C7D027F08127F
:10090B00106312139080E6E51D30E007E5097003D4
:04091B00120C422256
:1012CF00E51EB4FF167F057E00121104054FE54F92
:0C12DF00B4C808C2A5754F00751E00229F
:10068B0078A416E6FFEF6004E51A603A7F001204C7
:10069B00098E188F19C3E5199464E5189400400668
:1006AB00751800751963E51A6401601AAE18AF1955
:1006BB007C007D0A1205438F16AE18AF197C007DA6
:1006CB000A1205438D1778A4E6FFEF70681213AC7E
:1006DB007E0078C8A60608A60778C8E6FE08E6FFDF
:1006EB00EEC4F854F0C868FEEFC4540F48FF8F12E5
:1006FB0078C8E6FE08E6FF7E00EF540FFF8F13125B
:10070B00139E7E0078C8A60608A60778C8E6FE08E2
:10071B00E6FFEEC4F854F0C868FEEFC4540F48FF70
:10072B008F1478C8E6FE08E6FF7E00EF540FFF8FAC
:05073B001578A47632E0
:010740002296
:021191008F7B52
:1011930078D5760878D5E6FFEFD39400401DE57B3C
:1011A300139294000000D293000000C29300000049
:0B11B300E57BC313F57B78D51680D9CF
:0111BE00220E
:100F670078CB760078CA760878CAE6FFEFD3940084
:100F7700402D00000078CBE6FFEFC313FF78CBA628
:100F87000730940C78CBE6FFEF4480FF78CBA607B9
:100F9700000000D293000000C29378CA1680C97877
:030FA700CBE6FF97
:010FAA002224
:1011BF008F6F8D70C295000000C293000000D29512
:1011CF00000000AF6F121191000000AF701211916B
:0B11DF00D293000000C2950000002227
:021162008F7C80
:10116400C295000000C293000000D295000000AFB9
:101174007C121191000000120F6778D6A607D29353
:0C118400000000C29500000078D6E6FFD5
:01119000223C
:060E89008B628A6389649C
:100E8F0078CD76807D007F8E1211BF78CC76077873
:100E9F00CCE6FFEFD39400402578CDE6FFAB62AAF6
:100EAF0063A9641204E4FD1211BF74012564F56493
:100EBF00E43563F56378CD060678CC1680D17D8056
:050ECF007F8E1211BF2F
:010ED40022FB
:0D139E007F8312116278D7A60778D7E6FF8B
:0113AB00221F
:0D13AC007F8512116278D8A60778D8E6FF79
:0113B9002211
:020DEC008F7DF9
:100DEE0078CE7600087600759D0375BD00537D079D
:100DFE00E57D42C5000000000043C508000000006C
:100E0E000078CE0806E618860670010614FFC3EFBA
:100E1E009410EE648094A75009E5C530E4E3800297
:0E0E2E0080DF53C5E00000000000AFBD7E0075
:010E3C002293
:02102A008F7EB7
:10102C0078BD760008760078BF760078BFE6FFEFD3
:10103C00C394065013AF7E120DEC78BEEF26F61853
:10104C00EE36F678BF0680E378BDE6FE08E6FF7C58
:06105C00007D1E12054399
:01106200226B
:0407E10002D003E857
:10135B00758EC0758900758AF5758CB7D28CD2A93C
:03136B00D2AF22DC
:03000B00020F1EC3
:0D0F1E00C0E0C0D075D000C000C006C00704
:100F2B0078D0E6FE08E6FFEFB4E806EEB40302D293
:100F3B00B778D0E6FE08E6FFEFB4D00DEEB40709A4
:100F4B00C2B778D0760008760078D106E618700123
:010F5B00068F
:0B0F5C00D007D006D000D0D0D0E0328B
:10092B000207E6E493A3F8E493A34003F68001F2F5
:10093B0008DFF48029E493A3F85407240CC8C333CD
:10094B00C4540F4420C8834004F456800146F6DF9C
:10095B00E4800B0102040810204080900741E47EE4
:10096B00019360BCA3FF543F30E509541FFEE49391
:10097B00A360010ECF54C025E060A840B8E493A358
:10098B00FAE493A3F8E493A3C8C582C8CAC583CA83
:10099B00F0A3C8C582C8CAC583CADFE9DEE780BE3B
:0107E5000013
:1004E400BB010689828A83E0225002E722BBFE0216
:0904F400E32289828A83E4932249
:1004FD00BB010989828A83F8E028F022500327F78F
:10050D0022BBFE05F8E328F3228A838982F8E4935F
:02051D00282292
:10051F00BB010689828A83F0225002F722BBFE01BB
:02052F00F322B5
:10053100EF8DF0A4A8F0CF8CF0A428CE8DF0A42EDE
:02054100FE2298
:10054300BC000BBE0029EF8DF084FFADF022E4CC9C
:10055300F875F008EF2FFFEE33FEEC33FCEE9DEC65
:10056300984005FCEE9DFE0FD5F0E9E4CEFD22EDAB
:10057300F8F5F0EE8420D21CFEADF075F008EF2FF5
:10058300FFED33FD4007985006D5F0F222C398FDE6
:050593000FD5F0EA2283
:10059800D083D082F8E4937012740193700DA3A3F2
:1005A80093F8740193F5828883E473740293686006
:0605B800EFA3A3A380DF06
:00000001FF
